:100000000C9434000C9446000C9446000C9446006A
:100010000C9446000C9446000C9446000C94460048
:100020000C9446000C9446000C94F2000C9446008C
:100030000C9446000C9446000C9446000C94460028
:100040000C9446000C9446000C9446000C94460018
:100050000C9446000C9446000C9446000C94460008
:100060000C9446000C94460011241FBECFEFD8E03C
:10007000DEBFCDBF2CE0A0E0B1E001C01D92A13CED
:10008000B207E1F70E944F010C948F020C9400001C
:10009000ECE7F0E0808180628083EAE7F0E0808135
:1000A00082688083EEE7F0E080818160808308953C
:1000B000E0E8F0E0808182628083E1E8F0E0808126
:1000C00081618083E6E8F0E082EE90E091838083B6
:1000D0006081718180E090E00E949E016093BD0C80
:1000E0007093BE0C8093BF0C9093C00CEFE6F0E0D1
:1000F00080818062808310928B0010928A00089524
:100100009091C00095FFFCCF8093C6000895809128
:10011000C00087FFFCCF8091C6000895CF93DF9386
:10012000EC018991882319F00E948000FACFDF91B9
:10013000CF91089581E890E09093C5008093C4002A
:100140001092C00088E18093C10086E08093C200D5
:1001500008950F931F93CF93DF93EC0168EE73E044
:100160000E945E0180E3860F0E948000CE0164E65B
:1001700070E00E945E01CB010AE010E0B8010E942D
:100180005E01805D0E948000CE01B8010E945E0188
:10019000C82FCB01B8010E945E01805D0E948000E3
:1001A00080E38C0FDF91CF911F910F910C94800011
:1001B00014B815B884E084B915B80895893718F4CF
:1001C000843118F0089588E7089584E108959091A6
:1001D0000001E92FF0E0EF5FFE4F80839F5F909377
:1001E000000108951F920F920FB60F9211242F93C2
:1001F0003F934F935F936F937F938F939F93AF93AF
:10020000BF93CF93EF93FF93E0910001F0E0EF5F96
:10021000FE4F608170E080E090E00E94A00120E04D
:1002200030E040E85BE30E9404022091BD0C309175
:10023000BE0C4091BF0C5091C00C0E9404020E9461
:10024000720170938B0060938A00EAE7F0E080818E
:1002500080648083C09179006C2F70E080E090E032
:100260000E949E016093B90C7093BA0C8093BB0CF2
:100270009093BC0C8C2F0E94E700FF91EF91CF91DF
:10028000BF91AF919F918F917F916F915F914F91AE
:100290003F912F910F900FBE0F901F9018950E94C5
:1002A0009A000E9448000E9458000E94D80078944A
:1002B00080917A00806480937A00FFCFAA1BBB1BD9
:1002C00051E107C0AA1FBB1FA617B70710F0A61B56
:1002D000B70B881F991F5A95A9F780959095BC0177
:1002E000CD01089570D088F09F5790F0B92F9927CD
:1002F000B751A0F0D1F0660F771F881F991F1AF031
:10030000BA95C9F712C0B13081F077D0B1E0089545
:1003100074C0672F782F8827B85F39F0B93FCCF3C6
:10032000869577956795B395D9F73EF49095809526
:10033000709561957F4F8F4F9F4F0895E89409C046
:1003400097FB3EF490958095709561957F4F8F4F08
:100350009F4F9923A9F0F92F96E9BB279395F6951E
:10036000879577956795B795F111F8CFFAF4BB0F9C
:1003700011F460FF1BC06F5F7F4F8F4F9F4F16C000
:10038000882311F096E911C0772321F09EE8872F8A
:10039000762F05C0662371F096E8862F70E060E046
:1003A0002AF09A95660F771F881FDAF7880F9695BF
:1003B000879597F9089557FD9058440F551F59F0A8
:1003C0005F3F71F04795880F97FB991F61F09F3F42
:1003D00079F087950895121613061406551FF2CF6B
:1003E0004695F1DF08C0161617061806991FF1CFBB
:1003F00086957105610508940895E894BB276627E2
:100400007727CB0197F908950BD078C069D028F0F1
:100410006ED018F0952309F05AC05FC01124EECFBA
:10042000CADFA0F3959FD1F3950F50E0551F629F4F
:10043000F001729FBB27F00DB11D639FAA27F00D3D
:10044000B11DAA1F649F6627B00DA11D661F829F64
:100450002227B00DA11D621F739FB00DA11D621F49
:10046000839FA00D611D221F749F3327A00D611D66
:10047000231F849F600D211D822F762F6A2F112448
:100480009F5750408AF0E1F088234AF0EE0FFF1F9B
:10049000BB1F661F771F881F91505040A9F79E3FD2
:1004A000510570F014C0AACF5F3FECF3983EDCF327
:1004B000869577956795B795F795E7959F5FC1F70F
:1004C000FE2B880F911D9695879597F9089597F9BA
:1004D0009F6780E870E060E008959FEF80EC0895EA
:1004E00000240A9416161706180609060895002413
:1004F0000A9412161306140605060895092E03948D
:10050000000C11F4882352F0BB0F40F4BF2B11F400
:1005100060FF04C06F5F7F4F8F4F9F4F0895F89427
:02052000FFCF0B
:00000001FF
