:100000000C9434000C9451000C9451000C94510049
:100010000C9451000C9451000C9451000C9451001C
:100020000C9451000C9451000C9410010C9451004C
:100030000C9451000C9451000C9451000C945100FC
:100040000C9451000C9451000C9451000C945100EC
:100050000C9451000C9451000C9451000C945100DC
:100060000C9451000C94510011241FBECFEFD8E026
:10007000DEBFCDBF11E0A0E0B1E0E0E9F3E002C0F7
:1000800005900D92A230B107D9F72CE0A2E0B1E0C3
:1000900001C01D92A53CB207E1F70E9460010C94DB
:1000A000C6010C9400008CB580658CBD08959EB58A
:1000B0008EBD0DB407FEFDCF8EB508958091000171
:1000C0008EBD0DB407FEFDCF8EB590E00895ECE730
:1000D000F0E0808180628083EAE7F0E080818268DE
:1000E0008083EEE7F0E08081816080830895E0E81E
:1000F000F0E0808182688083E1E8F0E080818161C6
:100100008083E6E8F0E082EE90E091838083608176
:10011000718180E090E00E9489016093C10C70932E
:10012000C20C8093C30C9093C40CEFE6F0E0808186
:100130008062808310928B0010928A0008959091C3
:10014000C00095FFFCCF8093C60008958091C00049
:1001500087FFFCCF8091C6000895CF93DF93EC0119
:100160008991882319F00E949F00FACFDF91CF91E7
:10017000089581E890E09093C5008093C4001092A8
:10018000C00088E18093C10086E08093C20008959A
:100190000F931F93CF93DF93EC0168EE73E00E94FF
:1001A000750180E3860F0E949F00CE0164E670E037
:1001B0000E947501CB010AE010E0B8010E947501B0
:1001C000805D0E949F00CE01B8010E947501C82F7A
:1001D000CB01B8010E947501805D0E949F0080E301
:1001E0008C0FDF91CF911F910F910C949F008EE2A5
:1001F00084B984E085B90895853B18F48E3118F0F0
:10020000089584EB08958EE1089590910201E92FFD
:10021000F0E0ED5FFE4F80839F5F909302010895B1
:100220001F920F920FB60F9211242F933F934F936B
:100230005F936F937F938F939F93AF93BF93CF936E
:10024000EF93FF9315B882E00E94570080E00E9470
:10025000570080E00E94570080E00E9457008AE02B
:100260000E945700C4E0C5B915B883E00E9457004A
:1002700080E00E94570080E00E94570080E00E94CA
:1002800057000E945E008093BB0CC5B98091BB0CE7
:1002900090E00E94C8008AE00E949F00FF91EF91C9
:1002A000CF91BF91AF919F918F917F916F915F910E
:1002B0004F913F912F910F900FBE0F901F90189567
:1002C0000E9453000E94B9000E9467000E947700BC
:1002D0000E94F700789415B881E00E94570080E0F2
:1002E0000E94570084E085B9FFCFAA1BBB1B51E1D8
:1002F00007C0AA1FBB1FA617B70710F0A61BB70B96
:10030000881F991F5A95A9F780959095BC01CD013A
:100310000895E89409C097FB3EF4909580957095F8
:1003200061957F4F8F4F9F4F9923A9F0F92F96E941
:10033000BB279395F695879577956795B795F111B6
:10034000F8CFFAF4BB0F11F460FF1BC06F5F7F4F53
:100350008F4F9F4F16C0882311F096E911C0772365
:1003600021F09EE8872F762F05C0662371F096E86E
:10037000862F70E060E02AF09A95660F771F881F3D
:10038000DAF7880F9695879597F90895F894FFCF37
:0203900001006A
:00000001FF
