:100000000C9434000C9451000C9451000C94510049
:100010000C9451000C9451000C9451000C9451001C
:100020000C9451000C9451000C9418010C94510044
:100030000C9451000C9451000C9451000C945100FC
:100040000C9451000C9451000C9451000C945100EC
:100050000C9451000C9451000C9451000C945100DC
:100060000C9451000C94510011241FBECFEFD8E026
:10007000DEBFCDBF11E0A0E0B1E0E2E7F5E002C0F5
:1000800005900D92A230B107D9F721E0A2E0B1E0CE
:1000900001C01D92A631B207E1F70E94FC010C9449
:1000A000B7020C9400008CB580658CBD0895CF9389
:1000B000DF931F92CDB7DEB719829EB599838EBDAF
:1000C0000DB407FEFDCF8EB589830F90DF91CF91E0
:1000D0000895CF93DF931F92CDB7DEB71982898140
:1000E0008EBD0DB407FEFDCF8EB590E00F90DF9171
:1000F000CF910895ECE7F0E0808180628083EAE7A9
:10010000F0E0808182688083EEE7F0E080818160AA
:1001100080830895E0E8F0E0808182688083E1E8F0
:10012000F0E0808181618083E6E8F0E082EE90E09B
:10013000918380836081718180E090E00E94510210
:100140006093120170931301809314019093150131
:10015000EFE6F0E080818062808310928B00109245
:100160008A0008959091C00095FFFCCF8093C6004F
:1001700008958091C00087FFFCCF8091C60008954C
:10018000CF93DF93EC018991882319F00E94B2008C
:10019000FACFDF91CF91089581E890E09093C50068
:1001A0008093C4001092C00088E18093C10086E073
:1001B0008093C20008950F931F93CF93DF93EC01B8
:1001C00068EE73E00E94110280E3860F0E94B20085
:1001D000CE0164E670E00E941102CB010AE010E05B
:1001E000B8010E941102805D0E94B200CE01B801E8
:1001F0000E941102C82FCB01B8010E941102805D3C
:100200000E94B20080E38C0FDF91CF911F910F917C
:100210000C94B2008EE284B984E085B90895853BE0
:1002200018F48E3118F0089584EB08958EE1089546
:100230001F920F920FB60F9211242F933F934F935B
:100240005F936F937F938F939F93AF93BF93CF935E
:10025000EF93FF9380917A00806480937A0080917D
:100260007A0084FFFCCF6091790070E080E090E03C
:100270000E94510260930E0170930F018093100150
:100280009093110120910A018091000190E034E0E7
:10029000239F800D911D11248296909305018093D8
:1002A000040180910401909105018F3F9E4030F040
:1002B00010920A0110920001109209012091080188
:1002C0008091070190E034E0239F800D911D11245F
:1002D00090930301809302018091020190910301A8
:1002E0008F3F9E4030F0109208011092070110924B
:1002F000060115B882E00E94570080910A010E9411
:100300005700809100010E945700809109010E94CE
:10031000570060910E0170910F0180911001909132
:1003200011010E942502862F0E945700C4E0C5B922
:1003300015B883E00E945700809108010E94570081
:10034000809107010E945700809106010E9457008A
:100350000E94690080930C01C5B980910C0190E066
:100360009093890080938800809109018F5F80932A
:100370000901809109018F3F91F410920901809148
:1003800000018F5F80930001809100018F3F39F45D
:100390001092000180910A018F5F80930A01809181
:1003A00006018F5F80930601809106018F3F91F4D3
:1003B00010920601809107018F5F80930701809161
:1003C00007018F3F39F410920701809108018F5F78
:1003D00080930801FF91EF91CF91BF91AF919F91D1
:1003E0008F917F916F915F914F913F912F910F90DE
:1003F0000FBE0F901F9018950E9453000E94CC00D2
:100400000E947A000E948A000E940A01789415B81E
:1004100081E00E94570080E00E94570084E085B987
:10042000FFCFAA1BBB1B51E107C0AA1FBB1FA6170A
:10043000B70710F0A61BB70B881F991F5A95A9F78D
:1004400080959095BC01CD01089570D088F09F579C
:1004500090F0B92F9927B751A0F0D1F0660F771F10
:10046000881F991F1AF0BA95C9F712C0B13081F0F0
:1004700077D0B1E0089574C0672F782F8827B85FD0
:1004800039F0B93FCCF3869577956795B395D9F751
:100490003EF490958095709561957F4F8F4F9F4F5B
:1004A0000895E89409C097FB3EF490958095709567
:1004B00061957F4F8F4F9F4F9923A9F0F92F96E9B0
:1004C000BB279395F695879577956795B795F11125
:1004D000F8CFFAF4BB0F11F460FF1BC06F5F7F4FC2
:1004E0008F4F9F4F16C0882311F096E911C07723D4
:1004F00021F09EE8872F762F05C0662371F096E8DD
:10050000862F70E060E02AF09A95660F771F881FAB
:10051000DAF7880F9695879597F9089557FD9058C3
:10052000440F551F59F05F3F71F04795880F97FBB7
:10053000991F61F09F3F79F0879508951216130671
:100540001406551FF2CF4695F1DF08C016161706A0
:100550001806991FF1CF86957105610508940895D5
:10056000E894BB2766277727CB0197F90895F8947D
:02057000FFCFBB
:02057200220065
:00000001FF
