:100000000C9434000C9446000C9446000C9446006A
:100010000C9446000C9446000C9446000C94460048
:100020000C9446000C9446000C940D010C94460070
:100030000C9446000C9446000C9446000C94460028
:100040000C9446000C9446000C9446000C94460018
:100050000C9446000C9446000C9446000C94460008
:100060000C9446000C94460011241FBECFEFD8E03C
:10007000DEBFCDBF21E0A0E0B1E001C01D92A03104
:10008000B207E1F70E94B8010C9473020C940000CF
:100090008CB580658CBD0895CF93DF931F92CDB74B
:1000A000DEB719829EB599838EBD0DB407FEFDCFD4
:1000B0008EB589830F90DF91CF910895CF93DF9311
:1000C0001F92CDB7DEB7198289818EBD0DB407FEB0
:1000D000FDCF8EB590E00F90DF91CF910895ECE7C2
:1000E000F0E0808180628083EAE7F0E080818268CE
:1000F0008083EEE7F0E08081816080830895E0E80E
:10010000F0E0808182688083E1E8F0E080818161B5
:100110008083E6E8F0E082EE90E091838083608166
:10012000718180E090E00E940D0260930C01709359
:100130000D0180930E0190930F01EFE6F0E08081B6
:100140008062808310928B0010928A0008959091B3
:10015000C00095FFFCCF8093C60008958091C00039
:1001600087FFFCCF8091C6000895CF93DF93EC0109
:100170008991882319F00E94A700FACFDF91CF91CF
:10018000089581E890E09093C5008093C400109298
:10019000C00088E18093C10086E08093C20008958A
:1001A0000F931F93CF93DF93EC0168EE73E00E94EF
:1001B000CD0180E3860F0E94A700CE0164E670E0C7
:1001C0000E94CD01CB010AE010E0B8010E94CD01F0
:1001D000805D0E94A700CE01B8010E94CD01C82F0A
:1001E000CB01B8010E94CD01805D0E94A70080E391
:1001F0008C0FDF91CF911F910F910C94A7008EE28D
:1002000084B984E085B90895853B18F48E3118F0DF
:10021000089584EB08958EE108951F920F920FB612
:100220000F9211242F933F934F935F936F937F937C
:100230008F939F93AF93BF93CF93EF93FF9380914F
:100240007A00806480937A0080917A0084FFFCCFEA
:100250006091790070E080E090E00E940D02609370
:1002600008017093090180930A0190930B0180911A
:1002700002018F5F809302012091040180910301AC
:1002800090E034E0239F800D911D11249093010193
:1002900080930001809100019091010115B882E0E6
:1002A0000E944C00809104010E944C008091030147
:1002B0008E5D0E944C00809102010E944C00609172
:1002C00008017091090180910A0190910B010E942F
:1002D000E101862F0E944C00C4E0C5B915B883E047
:1002E0000E944C00809104010E944C008091030107
:1002F0000E944C00809102010E944C000E945E000E
:1003000080930601C5B98091060190E09093890021
:1003100080938800809102018F3FC1F41092020106
:10032000809103018F5F80930301809103018F3FD0
:1003300069F410920301809104018F5F809304019E
:10034000809104018E3010F010920401FF91EF9122
:10035000CF91BF91AF919F918F917F916F915F915D
:100360004F913F912F910F900FBE0F901F901895B6
:100370000E9448000E94C1000E946F000E947F00FE
:100380000E94FF00789415B881E00E944C0080E044
:100390000E944C0084E085B9FFCFAA1BBB1B51E132
:1003A00007C0AA1FBB1FA617B70710F0A61BB70BE5
:1003B000881F991F5A95A9F780959095BC01CD018A
:1003C000089570D088F09F5790F0B92F9927B751B2
:1003D000A0F0D1F0660F771F881F991F1AF0BA9509
:1003E000C9F712C0B13081F077D0B1E0089574C080
:1003F000672F782F8827B85F39F0B93FCCF38695FF
:1004000077956795B395D9F73EF49095809570955B
:1004100061957F4F8F4F9F4F0895E89409C097FBD8
:100420003EF490958095709561957F4F8F4F9F4FCB
:100430009923A9F0F92F96E9BB279395F69587950F
:1004400077956795B795F111F8CFFAF4BB0F11F4D2
:1004500060FF1BC06F5F7F4F8F4F9F4F16C0882379
:1004600011F096E911C0772321F09EE8872F762FAF
:1004700005C0662371F096E8862F70E060E02AF0F0
:100480009A95660F771F881FDAF7880F96958795DC
:1004900097F9089557FD9058440F551F59F05F3F45
:1004A00071F04795880F97FB991F61F09F3F79F096
:1004B00087950895121613061406551FF2CF469518
:1004C000F1DF08C0161617061806991FF1CF86959A
:1004D0007105610508940895E894BB27662777277E
:0A04E000CB0197F90895F894FFCFBF
:00000001FF
